:020000040800F2
:100000008006002091010008990100089B0100086A
:100010009D0100089F010008A101000800000000E8
:10002000000000000000000000000000A301000824
:10003000A501000800000000A7010008A9010008B0
:10004000AB010008AB010008AB010008AB010008E0
:10005000AB010008AB010008AB010008AB010008D0
:10006000AB010008AB010008AB010008F507000870
:10007000AB010008AB010008AB010008AB010008B0
:10008000AB010008AB010008AB010008AB010008A0
:10009000AB010008AB010008AB010008AB01000890
:1000A000AB010008AB010008AB010008AB01000880
:1000B000AB010008AB010008AB010008AB01000870
:1000C000AB010008AB010008AB010008AB01000860
:1000D000AB010008AB010008AB010008AB01000850
:1000E000AB010008AB010008AB01000800F002F80A
:1000F00000F03FF80AA090E8000C82448344AAF183
:100100000107DA4501D100F034F8AFF2090EBAE880
:100110000F0013F0010F18BFFB1A43F0010318473B
:10012000700D0000900D0000103A24BF78C878C10F
:10013000FAD8520724BF30C830C144BF04680C60ED
:10014000704700000023002400250026103A28BF35
:1001500078C1FBD8520728BF30C148BF0B60704739
:10016000642900F07780002070471FB51FBD10B5CF
:1001700010BD00F0B4F91146FFF7F7FF00F048FE9C
:1001800000F0D2F903B4FFF7F2FF03BC00F0DAF994
:100190000948804709480047FEE7FEE7FEE7FEE71B
:1001A000FEE7FEE7FEE7FEE7FEE7FEE70448054957
:1001B000054A064B70470000D10B0008ED0000080F
:1001C00080000020800600208002002080020020A5
:1001D0000FB41CB50C0007AA009001D02044401EAB
:1001E000074B7B4469460190069800F058F9002CB3
:1001F00003D06946002000F065F91CBC5DF814FBD3
:10020000E902000070B5044685690068C10601D5A1
:10021000302600E02026C00707D070BDD4E90121B8
:1002200030469047206A401C20626D1EF6D570BD96
:1002300070B5044685690078C00707D170BDD4E960
:10024000012120209047206A401C20626D1EF6D5B7
:1002500070BD00002DE9F0410646002410687529A4
:10026000314616A510D0AFF30080002802DA4042D4
:1002700013A507E031688A0701D512A502E04907F6
:1002800004D511A5012401E0AFF3008000210A226A
:1002900006F1240709E0B0FBF2FCB0FBF2F302FB2D
:1002A0001C00303078541846491C0028F3D12346EE
:1002B0002A463046BDE8F04100F092B80000000048
:1002C0002D0000002B000000200000002DE9F04769
:1002D0004FF0000A89460446C0F820A02046E16895
:1002E0008847002876D0252806D0D4E901219047F8
:1002F000206A401C2062F1E7E1682046002588471B
:10030000C4F81CA006460027C4F818A02A2E09D05D
:10031000304600F06BFD38B304EB8708303EC8F878
:10032000186019E059F8041B204604EB870291611C
:10033000E1688847012F064618D1E069002820DAD5
:1003400025F020051DE0D8F8180000EB800006EB32
:1003500040003038C8F818002046E1688847064653
:1003600000F044FD0028EED1012F0AD02E2E08D136
:100370002046E16888477F1C0646022F45F020058D
:10038000C4DBA069002803DA404245F00105A06102
:10039000E80701D025F01005B6B1A6F141001928F3
:1003A00002D8203645F400654A463146204625608D
:1003B0004D46FFF7D5FE58B1012806D0ED1D25F0BA
:1003C000070000F1080989E704E005F1040985E761
:1003D00030468AE7206ABDE8F0877047704770476B
:1003E0002DE9F0470D4699469246044600F124084F
:1003F0000168880604D5E06921F01001216000E061
:100400000120A84201DD471B00E00027A1697A19FD
:1004100002EB0900081AA0612078C00602D4204629
:10042000FFF7F0FE002608E0D4E901211AF80600E3
:100430009047206A401C761C20624E45F4DB2078F1
:10044000C0060AD52046FFF7DDFE06E0D4E901210B
:1004500030209047206A401C2062381EA7F1010717
:10046000F4DC07E0D4E9012118F805009047206A80
:10047000401C2062281EA5F10105F3DC2046FFF791
:10048000D7FE2078000602D50220BDE8F0870120C3
:10049000FBE7000001694A1C02610878704700B55B
:1004A0008FB0CDE901310021059105497944CDE9AD
:1004B000031011466846FFF709FF0FB000BD0000AA
:1004C000E5FFFFFF0A6802F8010B0A607047D1E9F7
:1004D00000239A4202D2531C0B601070704775467D
:1004E00000F02CF8AE4605006946534620F00700A0
:1004F000854618B020B5FFF759FEBDE820404FF003
:1005000000064FF000074FF000084FF0000B21F0FD
:100510000701AC46ACE8C009ACE8C009ACE8C009CA
:10052000ACE8C0098D46704710B50446AFF30080B3
:100530002046BDE81040FFF725BE00000048704788
:100540002000002001491820ABBEFEE72600020073
:100550007047000000B591B001214FF4017000F028
:1005600049FA0121084600F035FA0120ADF84000B3
:1005700000208DF8430010A9384800F0A0F9384851
:100580000090384801900020029001200390002044
:10059000049005904FF48070069080000790202012
:1005A00008900002099000200A9069462E4800F049
:1005B00068F9012202212C4800F05AF901212A4849
:1005C00000F034F900200B908DF8300001208DF8F8
:1005D00031004FF460200D9000200E9001208DF826
:1005E0003C000BA91E484C3800F06AF80523012294
:1005F00000211B484C3800F08BF8012118484C387A
:1006000000F03FF8012116484C3800F02FF814484C
:100610004C3800F0D9F800BF11484C3800F046F8CB
:100620000028F9D10E484C3800F0DEF800BF0C4825
:100630004C3800F031F80028F9D1012108484C3835
:1006400000F0C7F80B20012181404209920002F11D
:10065000E022C2F8001100BF11B000BD0008014047
:100660004C240140140000200800024021B182689F
:1006700042F00102826003E0826822F0010282609F
:10068000704721B1826842F48072826003E0826820
:1006900022F4807282607047014600208A6802F06E
:1006A00004020AB1012000E000207047014600204A
:1006B0008A6802F008020AB1012000E000207047B9
:1006C00030B502460020002350680F4C20400D79C1
:1006D0000C6844EA05242043506090680B4C20408D
:1006E000D1E902542C434D7944EA450420439060FB
:1006F000D06A20F470000C7C641EE4B2234340EA0C
:100700000350D06230BD0000FFFEF0FFFDF7F1FFA7
:10071000F0B504460D4600200021092D11DDE068EA
:10072000A5F10A0606EB4607072606FA07F18843F5
:10073000A5F10A0606EB460603FA06F10843E06057
:100740000CE0206905EB4507072606FA07F1884308
:1007500005EB450603FA06F108432061072A0FDA84
:10076000606B561E06EB86071F2606FA07F18843C4
:10077000561E06EB860605FA06F10843606322E082
:100780000D2A0FDA206BD61F06EB86071F2606FA06
:1007900007F18843D61F06EB860605FA06F10843E3
:1007A000206310E0E06AA2F10D0606EB86071F2623
:1007B00006FA07F18843A2F10D0606EB860605FA54
:1007C00006F10843E062F0BD816841F008018160F4
:1007D000704721B1826842F4A002826003E082681F
:1007E00022F4A00282607047816841F004018160B8
:1007F0007047000010B5022000F024F828B1022054
:1008000000F006F801200149087010BD1C0000200E
:1008100000F0805111B10349086001E002494860CD
:1008200070470000040402400000024021B1026849
:1008300042F00102026004E002684FF6FE731A40C3
:100840000260704701460020002201F0805313B17E
:10085000054B1A6801E0054B1A6802EA01030BB167
:10086000012000E000207047000402400000024028
:100870001AB103680B43036002E003688B43036013
:10088000704710B50022026847F6F0739A430C6A6D
:100890008B6823430C6923434C6923438C692343AE
:1008A000CC6923434C6A23438C6A23431A43026076
:1008B000CB6843600B6883604B68C36010BD2DE953
:1008C000F0410246002500260020002300240027D6
:1008D00091F803C00CF00F0591F803C00CF0100C58
:1008E000BCF1000F03D091F802C04CEA050591F865
:1008F00000C0BCF1000F31D0146800202BE04FF095
:10090000010C0CFA00F3B1F800C00CEA03069E4299
:1009100020D183004FF00F0C0CFA03F7BC4305FA0B
:1009200003FC4CEA040491F803C0BCF1280F06D183
:100930004FF0010C0CFA00FCC2F814C00AE091F868
:1009400003C0BCF1480F05D14FF0010C0CFA00FCBC
:10095000C2F810C0401C0828D1D31460B1F800C000
:10096000BCF1FF0F34DD546800202EE000F1080CCC
:100970004FF0010808FA0CF3B1F800C00CEA0306C6
:100980009E4221D183004FF00F0C0CFA03F7BC43B9
:1009900005FA03FC4CEA040491F803C0BCF1280FEB
:1009A00005D100F1080C08FA0CF8C2F8148091F88F
:1009B00003C0BCF1480F07D100F1080C4FF001084B
:1009C00008FA0CF8C2F81080401C0828CED35460F6
:1009D000BDE8F08129B1064A52690243044B5A61CD
:1009E00004E0034A52698243014B5A617047000098
:1009F0000010024029B1064A92690243044B9A61F1
:100A000004E0034A92698243014B9A6170470000F7
:100A10000010024030B500210022002400232D4D9B
:100A20006D6805F00C0121B1042905D0082923D1F6
:100A300005E0294D056022E0274D05601FE0254DAA
:100A40006D6805F47012234D6D6805F4803402253D
:100A500005EB92421CB9214D554305600BE01D4D3D
:100A60006D6805F400351DB11C4D5543056002E06D
:100A7000194D5543056002E0174D056000BF00BFEA
:100A8000144D6D6805F0F0010909154D6B5C0568A2
:100A9000DD4045600F4D6D6805F4E061090A104DB9
:100AA0006B5C4568DD4085600A4D6D6805F46051FA
:100AB000C90A0B4D6B5C4568DD40C560054D6D682E
:100AC00005F44041890B074D6B5CC568B5FBF3F538
:100AD000056130BD0010024000127A0000093D009F
:100AE000000000201000002010B500F001F810BD3B
:100AF0000CB50020019000903348006840F480302D
:100B00003149086000BF3048006800F400300090B0
:100B10000198401C0190009818B90198B0F5A06F99
:100B2000F1D12948006800F4003010B10120009094
:100B300001E0002000900098012843D1234800687C
:100B400040F01000214908600846006820F00700C6
:100B500008600846006840F0020008601A484068D3
:100B6000194948600846406848600846406840F4B3
:100B7000806048600846406820F47C104860084661
:100B8000406840F4E81048600846006840F0807013
:100B9000086000BF0C48006800F000700028F9D021
:100BA0000948406820F0030007494860084640684B
:100BB00040F00200486000BF0348406800F00C00AD
:100BC0000828F9D10CBD00000010024000200240AE
:100BD00010B51348006840F001001149086008464C
:100BE0004068104908400E494860084600680E49B0
:100BF00008400B4908600846006820F4802008601F
:100C00000846406820F4FE0048604FF41F008860EA
:100C1000FFF76AFF4FF000600449086010BD000054
:100C2000001002400000FFF8FFFFF6FE08ED00E0B4
:100C300010B504460BE000BF8021074800F058F8CB
:100C40000028F9D014F8011B034800F0CBF82078F5
:100C50000028F0D110BD00000038014000B585B07B
:100C6000012144F20400FFF7C5FE4FF40070ADF817
:100C7000100003208DF8120018208DF8130004A92D
:100C80001348FFF71CFE4FF48060ADF810000420FD
:100C90008DF8130004A90E48FFF711FE4FF416500B
:100CA00000900020ADF80400ADF80600ADF8080093
:100CB000ADF80C000820ADF80A006946054800F0C0
:100CC00025F80121034800F007F805B000BD000039
:100CD000000801400038014021B1828942F40052ED
:100CE000828104E082894DF6FF731A408281704749
:100CF00002460020B1F5007F00D100BF13880B40F1
:100D00000BB1012000E00020704700002DE9F04702
:100D100086B005460E460024A24600BFA146002725
:100D2000B08900B100BF2F462C8A4CF6FF700440FA
:100D3000F08804432C82AC894EF6F3100440B0884E
:100D400031890843718908430443AC81AC8A4FF66A
:100D5000FF400440B0890443AC8201A8FFF75AFE6B
:100D60001F48874202D1DDF810A001E0DDF80CA099
:100D7000A88900F4004040B10AEBCA0000EB0A1059
:100D800031684900B0FBF1F807E00AEBCA0000EB5C
:100D90000A1031688900B0FBF1F86420B8FBF0F06C
:100DA00004012009642101FB1089A88900F4004096
:100DB00040B1322000EBC900B0FBF1F000F00700B9
:100DC000044308E0322000EB09106421B0FBF1F08D
:100DD00000F00F0004432C8106B0BDE8F08700004E
:100DE00000380140C1F308028280704730380A2879
:100DF00001D20120704700207047002100E0491C0B
:100E000000EB4002C2EBC012B1EB821FF7D3704778
:100E10008EB0FFF723FFFFF79DFB21E0114800781C
:100E2000D8B100200F4908700F48008840F6E4410F
:100E3000484340F6FF7190FBF1F00C49086008460A
:100E4000006800900848038809A2322101A8FFF732
:100E5000BFF901A8FFF7ECFE00BFC820FFF7CDFFE8
:100E6000DCE700001C000020140000201800002017
:100E7000414443203D20253464207C20566F6C740F
:100E8000616765203D20253464206D560D0A000001
:100E9000B00E00080000002020000000280100081B
:100EA000D00E000820000020600600004401000869
:100EB0000000000001020304010203040607080900
:100EC000020406080000000000000000000000000E
:04000005080001915D
:00000001FF
